{
  "address": "0x5b854ff8EdED27622F7F11d4E9493743e2C5fE2c",
  "abi": [
    {
      "anonymous": false,
      "inputs": [
        {
          "indexed": true,
          "internalType": "address",
          "name": "owner",
          "type": "address"
        },
        {
          "indexed": true,
          "internalType": "address",
          "name": "walletAddress",
          "type": "address"
        },
        {
          "indexed": false,
          "internalType": "string",
          "name": "walletType",
          "type": "string"
        }
      ],
      "name": "WalletCreate",
      "type": "event"
    },
    {
      "inputs": [],
      "name": "createDestroyableWallet",
      "outputs": [],
      "stateMutability": "nonpayable",
      "type": "function"
    },
    {
      "inputs": [
        {
          "internalType": "address[]",
          "name": "_owners",
          "type": "address[]"
        },
        {
          "internalType": "uint256",
          "name": "_requiredConfirmations",
          "type": "uint256"
        }
      ],
      "name": "createMultisigWallet",
      "outputs": [],
      "stateMutability": "nonpayable",
      "type": "function"
    },
    {
      "inputs": [],
      "name": "createSimpleWallet",
      "outputs": [],
      "stateMutability": "nonpayable",
      "type": "function"
    },
    {
      "inputs": [],
      "name": "getAllWallets",
      "outputs": [
        {
          "internalType": "address[]",
          "name": "",
          "type": "address[]"
        }
      ],
      "stateMutability": "view",
      "type": "function"
    },
    {
      "inputs": [],
      "name": "getLatestWallet",
      "outputs": [
        {
          "internalType": "address",
          "name": "",
          "type": "address"
        }
      ],
      "stateMutability": "view",
      "type": "function"
    },
    {
      "inputs": [
        {
          "internalType": "uint256",
          "name": "_Id",
          "type": "uint256"
        }
      ],
      "name": "getWalletFromId",
      "outputs": [
        {
          "internalType": "address",
          "name": "",
          "type": "address"
        }
      ],
      "stateMutability": "view",
      "type": "function"
    }
  ],
  "transactionHash": "0x98984abc6271ee1874a4b0e575a80fd7e4768b9a9182a99b01a274274187bbf4",
  "args": [],
  "numDeployments": 1,
  "solcInputHash": "f9404d92bb8e6687a8eb52abb8bdaf7e",
  "bytecode": "0x608060405234801561001057600080fd5b5061326a806100206000396000f3fe60806040523480156200001157600080fd5b50600436106200006a5760003560e01c80631bfa8601146200006f57806341e588e914620000915780635af90cdb14620000b35780635b3661ce14620000e95780635eaf614d1462000109578063eb574fd61462000115575b600080fd5b6200007962000121565b60405162000088919062000bdc565b60405180910390f35b6200009b6200024d565b604051620000aa919062000bbf565b60405180910390f35b620000d16004803603810190620000cb919062000a61565b62000308565b604051620000e0919062000bbf565b60405180910390f35b620001076004803603810190620001019190620009fb565b62000381565b005b6200011362000555565b005b6200011f62000725565b005b60608060005b600160003373ffffffffffffffffffffffffffffffffffffffff1673ffffffffffffffffffffffffffffffffffffffff1681526020019081526020016000205481101562000245576000803373ffffffffffffffffffffffffffffffffffffffff1673ffffffffffffffffffffffffffffffffffffffff168152602001908152602001600020600082815260200190815260200160002060009054906101000a900473ffffffffffffffffffffffffffffffffffffffff16828281518110620001f557620001f462000e8a565b5b602002602001019073ffffffffffffffffffffffffffffffffffffffff16908173ffffffffffffffffffffffffffffffffffffffff168152505080806200023c9062000e0d565b91505062000127565b508091505090565b600080600160003373ffffffffffffffffffffffffffffffffffffffff1673ffffffffffffffffffffffffffffffffffffffff1681526020019081526020016000205490506000803373ffffffffffffffffffffffffffffffffffffffff1673ffffffffffffffffffffffffffffffffffffffff168152602001908152602001600020600082815260200190815260200160002060009054906101000a900473ffffffffffffffffffffffffffffffffffffffff1691505090565b60008060003373ffffffffffffffffffffffffffffffffffffffff1673ffffffffffffffffffffffffffffffffffffffff168152602001908152602001600020600083815260200190815260200160002060009054906101000a900473ffffffffffffffffffffffffffffffffffffffff169050919050565b600082826040516200039390620008f5565b620003a092919062000c00565b604051809103906000f080158015620003bd573d6000803e3d6000fd5b5090506000600160003373ffffffffffffffffffffffffffffffffffffffff1673ffffffffffffffffffffffffffffffffffffffff168152602001908152602001600020549050816000803373ffffffffffffffffffffffffffffffffffffffff1673ffffffffffffffffffffffffffffffffffffffff168152602001908152602001600020600083815260200190815260200160002060006101000a81548173ffffffffffffffffffffffffffffffffffffffff021916908373ffffffffffffffffffffffffffffffffffffffff16021790555060018060003373ffffffffffffffffffffffffffffffffffffffff1673ffffffffffffffffffffffffffffffffffffffff1681526020019081526020016000206000828254620004e3919062000d3c565b925050819055508173ffffffffffffffffffffffffffffffffffffffff163373ffffffffffffffffffffffffffffffffffffffff167f01a5d4b6d3c14edb12516667536b3fd020be5fcdcac29048a1f0a55e3ee4763b604051620005479062000c34565b60405180910390a350505050565b600033604051620005669062000903565b62000572919062000bbf565b604051809103906000f0801580156200058f573d6000803e3d6000fd5b5090506000600160003373ffffffffffffffffffffffffffffffffffffffff1673ffffffffffffffffffffffffffffffffffffffff168152602001908152602001600020549050816000803373ffffffffffffffffffffffffffffffffffffffff1673ffffffffffffffffffffffffffffffffffffffff168152602001908152602001600020600083815260200190815260200160002060006101000a81548173ffffffffffffffffffffffffffffffffffffffff021916908373ffffffffffffffffffffffffffffffffffffffff16021790555060018060003373ffffffffffffffffffffffffffffffffffffffff1673ffffffffffffffffffffffffffffffffffffffff1681526020019081526020016000206000828254620006b5919062000d3c565b925050819055508173ffffffffffffffffffffffffffffffffffffffff163373ffffffffffffffffffffffffffffffffffffffff167f01a5d4b6d3c14edb12516667536b3fd020be5fcdcac29048a1f0a55e3ee4763b604051620007199062000c56565b60405180910390a35050565b600033604051620007369062000911565b62000742919062000bbf565b604051809103906000f0801580156200075f573d6000803e3d6000fd5b5090506000600160003373ffffffffffffffffffffffffffffffffffffffff1673ffffffffffffffffffffffffffffffffffffffff168152602001908152602001600020549050816000803373ffffffffffffffffffffffffffffffffffffffff1673ffffffffffffffffffffffffffffffffffffffff168152602001908152602001600020600083815260200190815260200160002060006101000a81548173ffffffffffffffffffffffffffffffffffffffff021916908373ffffffffffffffffffffffffffffffffffffffff16021790555060018060003373ffffffffffffffffffffffffffffffffffffffff1673ffffffffffffffffffffffffffffffffffffffff168152602001908152602001600020600082825462000885919062000d3c565b925050819055508173ffffffffffffffffffffffffffffffffffffffff163373ffffffffffffffffffffffffffffffffffffffff167f01a5d4b6d3c14edb12516667536b3fd020be5fcdcac29048a1f0a55e3ee4763b604051620008e99062000c78565b60405180910390a35050565b610ff68062000fbd83390190565b6106108062001fb383390190565b610c7280620025c383390190565b600062000936620009308462000cc3565b62000c9a565b905080838252602082019050828560208602820111156200095c576200095b62000eed565b5b60005b858110156200099057816200097588826200099a565b8452602084019350602083019250506001810190506200095f565b5050509392505050565b600081359050620009ab8162000f88565b92915050565b600082601f830112620009c957620009c862000ee8565b5b8135620009db8482602086016200091f565b91505092915050565b600081359050620009f58162000fa2565b92915050565b6000806040838503121562000a155762000a1462000ef7565b5b600083013567ffffffffffffffff81111562000a365762000a3562000ef2565b5b62000a4485828601620009b1565b925050602062000a5785828601620009e4565b9150509250929050565b60006020828403121562000a7a5762000a7962000ef7565b5b600062000a8a84828501620009e4565b91505092915050565b600062000aa1838362000aad565b60208301905092915050565b62000ab88162000d99565b82525050565b62000ac98162000d99565b82525050565b600062000adc8262000d02565b62000ae8818562000d1a565b935062000af58362000cf2565b8060005b8381101562000b2c57815162000b10888262000a93565b975062000b1d8362000d0d565b92505060018101905062000af9565b5085935050505092915050565b600062000b48600e8362000d2b565b915062000b558262000f0d565b602082019050919050565b600062000b6f600c8362000d2b565b915062000b7c8262000f36565b602082019050919050565b600062000b9660118362000d2b565b915062000ba38262000f5f565b602082019050919050565b62000bb98162000dcd565b82525050565b600060208201905062000bd6600083018462000abe565b92915050565b6000602082019050818103600083015262000bf8818462000acf565b905092915050565b6000604082019050818103600083015262000c1c818562000acf565b905062000c2d602083018462000bae565b9392505050565b6000602082019050818103600083015262000c4f8162000b39565b9050919050565b6000602082019050818103600083015262000c718162000b60565b9050919050565b6000602082019050818103600083015262000c938162000b87565b9050919050565b600062000ca662000cb9565b905062000cb4828262000dd7565b919050565b6000604051905090565b600067ffffffffffffffff82111562000ce15762000ce062000eb9565b5b602082029050602081019050919050565b6000819050602082019050919050565b600081519050919050565b6000602082019050919050565b600082825260208201905092915050565b600082825260208201905092915050565b600062000d498262000dcd565b915062000d568362000dcd565b9250827fffffffffffffffffffffffffffffffffffffffffffffffffffffffffffffffff0382111562000d8e5762000d8d62000e5b565b5b828201905092915050565b600062000da68262000dad565b9050919050565b600073ffffffffffffffffffffffffffffffffffffffff82169050919050565b6000819050919050565b62000de28262000efc565b810181811067ffffffffffffffff8211171562000e045762000e0362000eb9565b5b80604052505050565b600062000e1a8262000dcd565b91507fffffffffffffffffffffffffffffffffffffffffffffffffffffffffffffffff82141562000e505762000e4f62000e5b565b5b600182019050919050565b7f4e487b7100000000000000000000000000000000000000000000000000000000600052601160045260246000fd5b7f4e487b7100000000000000000000000000000000000000000000000000000000600052603260045260246000fd5b7f4e487b7100000000000000000000000000000000000000000000000000000000600052604160045260246000fd5b600080fd5b600080fd5b600080fd5b600080fd5b6000601f19601f8301169050919050565b7f4d756c746973696757616c6c6574000000000000000000000000000000000000600082015250565b7f53696d706c6557616c6c65740000000000000000000000000000000000000000600082015250565b7f44657374726f7961626c6557616c6c6574000000000000000000000000000000600082015250565b62000f938162000d99565b811462000f9f57600080fd5b50565b62000fad8162000dcd565b811462000fb957600080fd5b5056fe60806040523480156200001157600080fd5b5060405162000ff638038062000ff68339818101604052810190620000379190620001bb565b60005b8251811015620000cf5760016003600085848151811062000060576200005f6200036a565b5b602002602001015173ffffffffffffffffffffffffffffffffffffffff1673ffffffffffffffffffffffffffffffffffffffff16815260200190815260200160002060006101000a81548160ff0219169083151502179055508080620000c690620002ed565b9150506200003a565b5080600181905550505062000421565b6000620000f6620000f0846200024a565b62000221565b905080838252602082019050828560208602820111156200011c576200011b620003cd565b5b60005b858110156200015057816200013588826200015a565b8452602084019350602083019250506001810190506200011f565b5050509392505050565b6000815190506200016b81620003ed565b92915050565b600082601f830112620001895762000188620003c8565b5b81516200019b848260208601620000df565b91505092915050565b600081519050620001b58162000407565b92915050565b60008060408385031215620001d557620001d4620003d7565b5b600083015167ffffffffffffffff811115620001f657620001f5620003d2565b5b620002048582860162000171565b92505060206200021785828601620001a4565b9150509250929050565b60006200022d62000240565b90506200023b8282620002b7565b919050565b6000604051905090565b600067ffffffffffffffff82111562000268576200026762000399565b5b602082029050602081019050919050565b600062000286826200028d565b9050919050565b600073ffffffffffffffffffffffffffffffffffffffff82169050919050565b6000819050919050565b620002c282620003dc565b810181811067ffffffffffffffff82111715620002e457620002e362000399565b5b80604052505050565b6000620002fa82620002ad565b91507fffffffffffffffffffffffffffffffffffffffffffffffffffffffffffffffff82141562000330576200032f6200033b565b5b600182019050919050565b7f4e487b7100000000000000000000000000000000000000000000000000000000600052601160045260246000fd5b7f4e487b7100000000000000000000000000000000000000000000000000000000600052603260045260246000fd5b7f4e487b7100000000000000000000000000000000000000000000000000000000600052604160045260246000fd5b600080fd5b600080fd5b600080fd5b600080fd5b6000601f19601f8301169050919050565b620003f88162000279565b81146200040457600080fd5b50565b6200041281620002ad565b81146200041e57600080fd5b50565b610bc580620004316000396000f3fe6080604052600436106100745760003560e01c80633aec25291161004e5780633aec2529146101965780637065cb48146101bf5780638bebea9a146101e8578063a152c35c14610211576100c9565b80631087393a1461011957806312065fe014610142578063173825d91461016d576100c9565b366100c9573373ffffffffffffffffffffffffffffffffffffffff167f8e47b87b0ef542cdfa1659c551d88bad38aa7f452d2bbb349ab7530dfec8be8f346040516100bf9190610a57565b60405180910390a2005b3373ffffffffffffffffffffffffffffffffffffffff167f8e47b87b0ef542cdfa1659c551d88bad38aa7f452d2bbb349ab7530dfec8be8f3460405161010f9190610a57565b60405180910390a2005b34801561012557600080fd5b50610140600480360381019061013b91906109cc565b61023a565b005b34801561014e57600080fd5b506101576103c9565b6040516101649190610a57565b60405180910390f35b34801561017957600080fd5b50610194600480360381019061018f919061099f565b6103d1565b005b3480156101a257600080fd5b506101bd60048036038101906101b891906109cc565b6104b6565b005b3480156101cb57600080fd5b506101e660048036038101906101e1919061099f565b6104c0565b005b3480156101f457600080fd5b5061020f600480360381019061020a91906109cc565b6105a5565b005b34801561021d57600080fd5b50610238600480360381019061023391906109f9565b61075c565b005b60011515600360003373ffffffffffffffffffffffffffffffffffffffff1673ffffffffffffffffffffffffffffffffffffffff16815260200190815260200160002060009054906101000a900460ff161515146102c4576040517fe211615100000000000000000000000000000000000000000000000000000000815260040160405180910390fd5b600015156004600083815260200190815260200160002060003373ffffffffffffffffffffffffffffffffffffffff1673ffffffffffffffffffffffffffffffffffffffff16815260200190815260200160002060009054906101000a900460ff1615151461035f576040517f5400fe0400000000000000000000000000000000000000000000000000000000815260040160405180910390fd5b60016002600083815260200190815260200160002060020160008282546103869190610a9b565b925050819055507f4bfc77ad1a98e4db017500179cf0661ff34ea04dcd67dace6d07d09aeac2137d81336040516103be929190610a72565b60405180910390a150565b600047905090565b60011515600360003373ffffffffffffffffffffffffffffffffffffffff1673ffffffffffffffffffffffffffffffffffffffff16815260200190815260200160002060009054906101000a900460ff1615151461045b576040517fe211615100000000000000000000000000000000000000000000000000000000815260040160405180910390fd5b6000600360008373ffffffffffffffffffffffffffffffffffffffff1673ffffffffffffffffffffffffffffffffffffffff16815260200190815260200160002060006101000a81548160ff02191690831515021790555050565b8060018190555050565b60011515600360003373ffffffffffffffffffffffffffffffffffffffff1673ffffffffffffffffffffffffffffffffffffffff16815260200190815260200160002060009054906101000a900460ff1615151461054a576040517fe211615100000000000000000000000000000000000000000000000000000000815260040160405180910390fd5b6001600360008373ffffffffffffffffffffffffffffffffffffffff1673ffffffffffffffffffffffffffffffffffffffff16815260200190815260200160002060006101000a81548160ff02191690831515021790555050565b60011515600360003373ffffffffffffffffffffffffffffffffffffffff1673ffffffffffffffffffffffffffffffffffffffff16815260200190815260200160002060009054906101000a900460ff1615151461062f576040517fe211615100000000000000000000000000000000000000000000000000000000815260040160405180910390fd5b60015460026000838152602001908152602001600020600201541015610681576040517f6a829b7800000000000000000000000000000000000000000000000000000000815260040160405180910390fd5b60006002600083815260200190815260200160002060010160009054906101000a900473ffffffffffffffffffffffffffffffffffffffff1690506000600260008481526020019081526020016000206000015490508173ffffffffffffffffffffffffffffffffffffffff166108fc829081150290604051600060405180830381858888f1935050505015801561071d573d6000803e3d6000fd5b507f2f4dd9f8910a5b3bc1c8c1260a8a263d143a1dd1085eac84a7c13e9b3c3084d1833360405161074f929190610a72565b60405180910390a1505050565b60011515600360003373ffffffffffffffffffffffffffffffffffffffff1673ffffffffffffffffffffffffffffffffffffffff16815260200190815260200160002060009054906101000a900460ff161515146107e6576040517fe211615100000000000000000000000000000000000000000000000000000000815260040160405180910390fd5b60405180608001604052808381526020018273ffffffffffffffffffffffffffffffffffffffff168152602001600181526020016000151581525060026000805481526020019081526020016000206000820151816000015560208201518160010160006101000a81548173ffffffffffffffffffffffffffffffffffffffff021916908373ffffffffffffffffffffffffffffffffffffffff1602179055506040820151816002015560608201518160030160006101000a81548160ff0219169083151502179055509050506001600460008054815260200190815260200160002060003373ffffffffffffffffffffffffffffffffffffffff1673ffffffffffffffffffffffffffffffffffffffff16815260200190815260200160002060006101000a81548160ff0219169083151502179055507fb39ef3dfed7e7c208c36828e9a59b5246c9cf55e7230bdc7ce6fbe6efca5b19d60005433604051610950929190610a72565b60405180910390a1600160008082825461096a9190610a9b565b925050819055505050565b60008135905061098481610b61565b92915050565b60008135905061099981610b78565b92915050565b6000602082840312156109b5576109b4610b5c565b5b60006109c384828501610975565b91505092915050565b6000602082840312156109e2576109e1610b5c565b5b60006109f08482850161098a565b91505092915050565b60008060408385031215610a1057610a0f610b5c565b5b6000610a1e8582860161098a565b9250506020610a2f85828601610975565b9150509250929050565b610a4281610af1565b82525050565b610a5181610b23565b82525050565b6000602082019050610a6c6000830184610a48565b92915050565b6000604082019050610a876000830185610a48565b610a946020830184610a39565b9392505050565b6000610aa682610b23565b9150610ab183610b23565b9250827fffffffffffffffffffffffffffffffffffffffffffffffffffffffffffffffff03821115610ae657610ae5610b2d565b5b828201905092915050565b6000610afc82610b03565b9050919050565b600073ffffffffffffffffffffffffffffffffffffffff82169050919050565b6000819050919050565b7f4e487b7100000000000000000000000000000000000000000000000000000000600052601160045260246000fd5b600080fd5b610b6a81610af1565b8114610b7557600080fd5b50565b610b8181610b23565b8114610b8c57600080fd5b5056fea2646970667358221220ba9cc07b1c0ad60e64bbde0ec94976f6f22c2dff2d944fc626eb77438311b75564736f6c6343000807003360a060405234801561001057600080fd5b5060405161061038038061061083398181016040528101906100329190610084565b8073ffffffffffffffffffffffffffffffffffffffff1660808173ffffffffffffffffffffffffffffffffffffffff1660601b81525050506100ff565b60008151905061007e816100e8565b92915050565b60006020828403121561009a576100996100e3565b5b60006100a88482850161006f565b91505092915050565b60006100bc826100c3565b9050919050565b600073ffffffffffffffffffffffffffffffffffffffff82169050919050565b600080fd5b6100f1816100b1565b81146100fc57600080fd5b50565b60805160601c6104ec61012460003960008181610164015261026a01526104ec6000f3fe6080604052600436106100385760003560e01c806312065fe0146100dd578063958e2d3114610108578063f08e362f146101315761008d565b3661008d573373ffffffffffffffffffffffffffffffffffffffff167f8e47b87b0ef542cdfa1659c551d88bad38aa7f452d2bbb349ab7530dfec8be8f34604051610083919061042c565b60405180910390a2005b3373ffffffffffffffffffffffffffffffffffffffff167f8e47b87b0ef542cdfa1659c551d88bad38aa7f452d2bbb349ab7530dfec8be8f346040516100d3919061042c565b60405180910390a2005b3480156100e957600080fd5b506100f261015a565b6040516100ff919061042c565b60405180910390f35b34801561011457600080fd5b5061012f600480360381019061012a91906103b0565b610162565b005b34801561013d57600080fd5b50610158600480360381019061015391906103dd565b610268565b005b600047905090565b7f000000000000000000000000000000000000000000000000000000000000000073ffffffffffffffffffffffffffffffffffffffff163373ffffffffffffffffffffffffffffffffffffffff16146101e7576040517ffbe34a0400000000000000000000000000000000000000000000000000000000815260040160405180910390fd5b3373ffffffffffffffffffffffffffffffffffffffff166108fc479081150290604051600060405180830381858888f1935050505015801561022d573d6000803e3d6000fd5b507ff01e20b4bd95fdc42daa2d7c96d4d4cf83ee0bda1723dda838c57102e47d16808160405161025d919061042c565b60405180910390a150565b7f000000000000000000000000000000000000000000000000000000000000000073ffffffffffffffffffffffffffffffffffffffff163373ffffffffffffffffffffffffffffffffffffffff16146102ed576040517ffbe34a0400000000000000000000000000000000000000000000000000000000815260040160405180910390fd5b8073ffffffffffffffffffffffffffffffffffffffff166108fc839081150290604051600060405180830381858888f19350505050158015610333573d6000803e3d6000fd5b508073ffffffffffffffffffffffffffffffffffffffff167fe4a4217f2dc0b69a9a45e3fd49d47fc0e2081b6590b9c8bfa4b7d3f17dfdf9178360405161037a919061042c565b60405180910390a25050565b60008135905061039581610488565b92915050565b6000813590506103aa8161049f565b92915050565b6000602082840312156103c6576103c5610483565b5b60006103d48482850161039b565b91505092915050565b600080604083850312156103f4576103f3610483565b5b60006104028582860161039b565b925050602061041385828601610386565b9150509250929050565b61042681610479565b82525050565b6000602082019050610441600083018461041d565b92915050565b600061045282610459565b9050919050565b600073ffffffffffffffffffffffffffffffffffffffff82169050919050565b6000819050919050565b600080fd5b61049181610447565b811461049c57600080fd5b50565b6104a881610479565b81146104b357600080fd5b5056fea2646970667358221220fcb725a714412e7a835e378d24947fdb9b7adc635aebe1bd1d6ad59268874a0b64736f6c6343000807003360a060405234801561001057600080fd5b50604051610c72380380610c72833981810160405281019061003291906100ae565b8073ffffffffffffffffffffffffffffffffffffffff1660808173ffffffffffffffffffffffffffffffffffffffff1660601b8152505060026000806101000a81548160ff0219169083600281111561008e5761008d61010d565b5b021790555050610158565b6000815190506100a881610141565b92915050565b6000602082840312156100c4576100c361013c565b5b60006100d284828501610099565b91505092915050565b60006100e6826100ed565b9050919050565b600073ffffffffffffffffffffffffffffffffffffffff82169050919050565b7f4e487b7100000000000000000000000000000000000000000000000000000000600052602160045260246000fd5b600080fd5b61014a816100db565b811461015557600080fd5b50565b60805160601c610ae061019260003960008181610324015281816104ff015281816105b0015281816106b601526107670152610ae06000f3fe60806040526004361061007f5760003560e01c80636ec7c08b1161004e5780636ec7c08b146102a2578063958e2d31146102b9578063cea73e13146102e2578063f08e362f146102f95761013e565b80630ce62df4146101f857806312065fe0146102215780631ca5872c1461024c5780634e69d560146102775761013e565b3661013e5760028081111561009757610096610a34565b5b60008054906101000a900460ff1660028111156100b7576100b6610a34565b5b146100ee576040517ff3884b3200000000000000000000000000000000000000000000000000000000815260040160405180910390fd5b3373ffffffffffffffffffffffffffffffffffffffff167f8e47b87b0ef542cdfa1659c551d88bad38aa7f452d2bbb349ab7530dfec8be8f3460405161013491906109b8565b60405180910390a2005b60028081111561015157610150610a34565b5b60008054906101000a900460ff16600281111561017157610170610a34565b5b146101a8576040517ff3884b3200000000000000000000000000000000000000000000000000000000815260040160405180910390fd5b3373ffffffffffffffffffffffffffffffffffffffff167f8e47b87b0ef542cdfa1659c551d88bad38aa7f452d2bbb349ab7530dfec8be8f346040516101ee91906109b8565b60405180910390a2005b34801561020457600080fd5b5061021f600480360381019061021a91906108ad565b610322565b005b34801561022d57600080fd5b506102366104ce565b60405161024391906109b8565b60405180910390f35b34801561025857600080fd5b506102616104d6565b60405161026e919061099d565b60405180910390f35b34801561028357600080fd5b5061028c6104e7565b604051610299919061099d565b60405180910390f35b3480156102ae57600080fd5b506102b76104fd565b005b3480156102c557600080fd5b506102e060048036038101906102db91906108da565b6105ae565b005b3480156102ee57600080fd5b506102f76106b4565b005b34801561030557600080fd5b50610320600480360381019061031b9190610907565b610765565b005b7f000000000000000000000000000000000000000000000000000000000000000073ffffffffffffffffffffffffffffffffffffffff163373ffffffffffffffffffffffffffffffffffffffff16146103a7576040517fd8eb553e00000000000000000000000000000000000000000000000000000000815260040160405180910390fd5b6002808111156103ba576103b9610a34565b5b60008054906101000a900460ff1660028111156103da576103d9610a34565b5b14610411576040517ff3884b3200000000000000000000000000000000000000000000000000000000815260040160405180910390fd5b6001600281111561042557610424610a34565b5b60008054906101000a900460ff16600281111561044557610444610a34565b5b1461047c576040517fbbd2929700000000000000000000000000000000000000000000000000000000815260040160405180910390fd5b7f998e6e05d2330299382a81281a339769590db319d1246f9818ce2f46128c13c681476040516104ad929190610974565b60405180910390a18073ffffffffffffffffffffffffffffffffffffffff16ff5b600047905090565b60008054906101000a900460ff1681565b60008060009054906101000a900460ff16905090565b7f000000000000000000000000000000000000000000000000000000000000000073ffffffffffffffffffffffffffffffffffffffff163373ffffffffffffffffffffffffffffffffffffffff1614610582576040517fd8eb553e00000000000000000000000000000000000000000000000000000000815260040160405180910390fd5b60016000806101000a81548160ff021916908360028111156105a7576105a6610a34565b5b0217905550565b7f000000000000000000000000000000000000000000000000000000000000000073ffffffffffffffffffffffffffffffffffffffff163373ffffffffffffffffffffffffffffffffffffffff1614610633576040517fd8eb553e00000000000000000000000000000000000000000000000000000000815260040160405180910390fd5b3373ffffffffffffffffffffffffffffffffffffffff166108fc479081150290604051600060405180830381858888f19350505050158015610679573d6000803e3d6000fd5b507ff01e20b4bd95fdc42daa2d7c96d4d4cf83ee0bda1723dda838c57102e47d1680816040516106a991906109b8565b60405180910390a150565b7f000000000000000000000000000000000000000000000000000000000000000073ffffffffffffffffffffffffffffffffffffffff163373ffffffffffffffffffffffffffffffffffffffff1614610739576040517fd8eb553e00000000000000000000000000000000000000000000000000000000815260040160405180910390fd5b60026000806101000a81548160ff0219169083600281111561075e5761075d610a34565b5b0217905550565b7f000000000000000000000000000000000000000000000000000000000000000073ffffffffffffffffffffffffffffffffffffffff163373ffffffffffffffffffffffffffffffffffffffff16146107ea576040517fd8eb553e00000000000000000000000000000000000000000000000000000000815260040160405180910390fd5b8073ffffffffffffffffffffffffffffffffffffffff166108fc839081150290604051600060405180830381858888f19350505050158015610830573d6000803e3d6000fd5b508073ffffffffffffffffffffffffffffffffffffffff167fe4a4217f2dc0b69a9a45e3fd49d47fc0e2081b6590b9c8bfa4b7d3f17dfdf9178360405161087791906109b8565b60405180910390a25050565b60008135905061089281610a7c565b92915050565b6000813590506108a781610a93565b92915050565b6000602082840312156108c3576108c2610a63565b5b60006108d184828501610883565b91505092915050565b6000602082840312156108f0576108ef610a63565b5b60006108fe84828501610898565b91505092915050565b6000806040838503121561091e5761091d610a63565b5b600061092c85828601610898565b925050602061093d85828601610883565b9150509250929050565b610950816109d3565b82525050565b61095f81610a22565b82525050565b61096e81610a18565b82525050565b60006040820190506109896000830185610947565b6109966020830184610965565b9392505050565b60006020820190506109b26000830184610956565b92915050565b60006020820190506109cd6000830184610965565b92915050565b60006109de826109f8565b9050919050565b60008190506109f382610a68565b919050565b600073ffffffffffffffffffffffffffffffffffffffff82169050919050565b6000819050919050565b6000610a2d826109e5565b9050919050565b7f4e487b7100000000000000000000000000000000000000000000000000000000600052602160045260246000fd5b600080fd5b60038110610a7957610a78610a34565b5b50565b610a85816109d3565b8114610a9057600080fd5b50565b610a9c81610a18565b8114610aa757600080fd5b5056fea2646970667358221220e5aaabf7c2567654c02effc53c65231112f2a20651565386a2840ba02ff3d5de64736f6c63430008070033a2646970667358221220844fe508807de17b655b216c8e1b23260b7991a34ba833e827340070b1e3ddd264736f6c63430008070033",
  "devdoc": {
    "author": "David Camps Novi",
    "details": "This contract uses a factory pattern to deploy a new wallet for each user",
    "kind": "dev",
    "methods": {
      "createSimpleWallet()": {
        "details": "The wallet addresses and Ids are stored in mappings so that users can get  their wallet addresses."
      }
    },
    "title": "EVM wallet generator",
    "version": 1
  },
  "userdoc": {
    "kind": "user",
    "methods": {
      "createSimpleWallet()": {
        "notice": "This is the function that will deploy a new wallet every time it's called."
      },
      "getLatestWallet()": {
        "notice": "Use this function to get the address of your last created wallet"
      }
    },
    "version": 1
  },
  "storageLayout": {
    "storage": [
      {
        "astId": 699,
        "contract": "contracts/WalletGenerator.sol:WalletGenerator",
        "label": "s_wallets",
        "offset": 0,
        "slot": "0",
        "type": "t_mapping(t_address,t_mapping(t_uint256,t_address))"
      },
      {
        "astId": 703,
        "contract": "contracts/WalletGenerator.sol:WalletGenerator",
        "label": "s_numberOfWallets",
        "offset": 0,
        "slot": "1",
        "type": "t_mapping(t_address,t_uint256)"
      }
    ],
    "types": {
      "t_address": {
        "encoding": "inplace",
        "label": "address",
        "numberOfBytes": "20"
      },
      "t_mapping(t_address,t_mapping(t_uint256,t_address))": {
        "encoding": "mapping",
        "key": "t_address",
        "label": "mapping(address => mapping(uint256 => address))",
        "numberOfBytes": "32",
        "value": "t_mapping(t_uint256,t_address)"
      },
      "t_mapping(t_address,t_uint256)": {
        "encoding": "mapping",
        "key": "t_address",
        "label": "mapping(address => uint256)",
        "numberOfBytes": "32",
        "value": "t_uint256"
      },
      "t_mapping(t_uint256,t_address)": {
        "encoding": "mapping",
        "key": "t_uint256",
        "label": "mapping(uint256 => address)",
        "numberOfBytes": "32",
        "value": "t_address"
      },
      "t_uint256": {
        "encoding": "inplace",
        "label": "uint256",
        "numberOfBytes": "32"
      }
    }
  }
}